{
  "_format": "hh-sol-artifact-1",
  "contractName": "NFTMarket",
  "sourceName": "contracts/Market.sol",
  "abi": [
    {
      "inputs": [],
      "stateMutability": "nonpayable",
      "type": "constructor"
    },
    {
      "anonymous": false,
      "inputs": [
        {
          "indexed": true,
          "internalType": "uint256",
          "name": "itemId",
          "type": "uint256"
        },
        {
          "indexed": true,
          "internalType": "address",
          "name": "nftContract",
          "type": "address"
        },
        {
          "indexed": true,
          "internalType": "uint256",
          "name": "tokenId",
          "type": "uint256"
        },
        {
          "indexed": false,
          "internalType": "address",
          "name": "seller",
          "type": "address"
        },
        {
          "indexed": false,
          "internalType": "address",
          "name": "owner",
          "type": "address"
        },
        {
          "indexed": false,
          "internalType": "uint256",
          "name": "price",
          "type": "uint256"
        },
        {
          "indexed": false,
          "internalType": "bool",
          "name": "sold",
          "type": "bool"
        }
      ],
      "name": "MarketItemCreated",
      "type": "event"
    },
    {
      "inputs": [
        {
          "internalType": "address",
          "name": "nftContract",
          "type": "address"
        },
        {
          "internalType": "uint256",
          "name": "tokenId",
          "type": "uint256"
        },
        {
          "internalType": "uint256",
          "name": "price",
          "type": "uint256"
        }
      ],
      "name": "createMarketItem",
      "outputs": [],
      "stateMutability": "payable",
      "type": "function"
    },
    {
      "inputs": [
        {
          "internalType": "address",
          "name": "nftContract",
          "type": "address"
        },
        {
          "internalType": "uint256",
          "name": "itemId",
          "type": "uint256"
        }
      ],
      "name": "createMarketSale",
      "outputs": [],
      "stateMutability": "payable",
      "type": "function"
    },
    {
      "inputs": [
        {
          "internalType": "address",
          "name": "ownerAddress",
          "type": "address"
        }
      ],
      "name": "fetchItemsByOwnerId",
      "outputs": [
        {
          "components": [
            {
              "internalType": "uint256",
              "name": "itemId",
              "type": "uint256"
            },
            {
              "internalType": "address",
              "name": "nftContract",
              "type": "address"
            },
            {
              "internalType": "uint256",
              "name": "tokenId",
              "type": "uint256"
            },
            {
              "internalType": "address payable",
              "name": "seller",
              "type": "address"
            },
            {
              "internalType": "address payable",
              "name": "owner",
              "type": "address"
            },
            {
              "internalType": "uint256",
              "name": "price",
              "type": "uint256"
            },
            {
              "internalType": "bool",
              "name": "sold",
              "type": "bool"
            }
          ],
          "internalType": "struct NFTMarket.MarketItem[]",
          "name": "",
          "type": "tuple[]"
        }
      ],
      "stateMutability": "view",
      "type": "function"
    },
    {
      "inputs": [],
      "name": "fetchItemsCreated",
      "outputs": [
        {
          "components": [
            {
              "internalType": "uint256",
              "name": "itemId",
              "type": "uint256"
            },
            {
              "internalType": "address",
              "name": "nftContract",
              "type": "address"
            },
            {
              "internalType": "uint256",
              "name": "tokenId",
              "type": "uint256"
            },
            {
              "internalType": "address payable",
              "name": "seller",
              "type": "address"
            },
            {
              "internalType": "address payable",
              "name": "owner",
              "type": "address"
            },
            {
              "internalType": "uint256",
              "name": "price",
              "type": "uint256"
            },
            {
              "internalType": "bool",
              "name": "sold",
              "type": "bool"
            }
          ],
          "internalType": "struct NFTMarket.MarketItem[]",
          "name": "",
          "type": "tuple[]"
        }
      ],
      "stateMutability": "view",
      "type": "function"
    },
    {
      "inputs": [],
      "name": "fetchMarketItems",
      "outputs": [
        {
          "components": [
            {
              "internalType": "uint256",
              "name": "itemId",
              "type": "uint256"
            },
            {
              "internalType": "address",
              "name": "nftContract",
              "type": "address"
            },
            {
              "internalType": "uint256",
              "name": "tokenId",
              "type": "uint256"
            },
            {
              "internalType": "address payable",
              "name": "seller",
              "type": "address"
            },
            {
              "internalType": "address payable",
              "name": "owner",
              "type": "address"
            },
            {
              "internalType": "uint256",
              "name": "price",
              "type": "uint256"
            },
            {
              "internalType": "bool",
              "name": "sold",
              "type": "bool"
            }
          ],
          "internalType": "struct NFTMarket.MarketItem[]",
          "name": "",
          "type": "tuple[]"
        }
      ],
      "stateMutability": "view",
      "type": "function"
    },
    {
      "inputs": [],
      "name": "fetchMyNFTs",
      "outputs": [
        {
          "components": [
            {
              "internalType": "uint256",
              "name": "itemId",
              "type": "uint256"
            },
            {
              "internalType": "address",
              "name": "nftContract",
              "type": "address"
            },
            {
              "internalType": "uint256",
              "name": "tokenId",
              "type": "uint256"
            },
            {
              "internalType": "address payable",
              "name": "seller",
              "type": "address"
            },
            {
              "internalType": "address payable",
              "name": "owner",
              "type": "address"
            },
            {
              "internalType": "uint256",
              "name": "price",
              "type": "uint256"
            },
            {
              "internalType": "bool",
              "name": "sold",
              "type": "bool"
            }
          ],
          "internalType": "struct NFTMarket.MarketItem[]",
          "name": "",
          "type": "tuple[]"
        }
      ],
      "stateMutability": "view",
      "type": "function"
    },
    {
      "inputs": [],
      "name": "getListingPrice",
      "outputs": [
        {
          "internalType": "uint256",
          "name": "",
          "type": "uint256"
        }
      ],
      "stateMutability": "view",
      "type": "function"
    }
  ],
  "bytecode": "0x60806040526658d15e1762800060045534801561001b57600080fd5b50600160008190555033600360006101000a81548173ffffffffffffffffffffffffffffffffffffffff021916908373ffffffffffffffffffffffffffffffffffffffff160217905550611ca1806100746000396000f3fe6080604052600436106100705760003560e01c8063202e37401161004e578063202e37401461010857806358eb2df514610133578063c23b139e1461014f578063f064c32e1461016b57610070565b80630f08efe01461007557806312e85585146100a05780631d65fb52146100cb575b600080fd5b34801561008157600080fd5b5061008a610196565b60405161009791906116fb565b60405180910390f35b3480156100ac57600080fd5b506100b5610460565b6040516100c2919061172c565b60405180910390f35b3480156100d757600080fd5b506100f260048036038101906100ed9190611778565b61046a565b6040516100ff91906116fb565b60405180910390f35b34801561011457600080fd5b5061011d6107d6565b60405161012a91906116fb565b60405180910390f35b61014d600480360381019061014891906117d1565b610b1e565b005b61016960048036038101906101649190611824565b610e82565b005b34801561017757600080fd5b5061018061113b565b60405161018d91906116fb565b60405180910390f35b606060006101a46001611483565b905060006101b26002611483565b6101bc6001611483565b6101c69190611893565b90506000808267ffffffffffffffff8111156101e5576101e46118c7565b5b60405190808252806020026020018201604052801561021e57816020015b61020b6114a7565b8152602001906001900390816102035790505b50905060005b8481101561045557600073ffffffffffffffffffffffffffffffffffffffff166005600060018461025591906118f6565b815260200190815260200160002060040160009054906101000a900473ffffffffffffffffffffffffffffffffffffffff1673ffffffffffffffffffffffffffffffffffffffff1614156104425760006001826102b291906118f6565b90506000600560008381526020019081526020016000209050806040518060e0016040529081600082015481526020016001820160009054906101000a900473ffffffffffffffffffffffffffffffffffffffff1673ffffffffffffffffffffffffffffffffffffffff1673ffffffffffffffffffffffffffffffffffffffff168152602001600282015481526020016003820160009054906101000a900473ffffffffffffffffffffffffffffffffffffffff1673ffffffffffffffffffffffffffffffffffffffff1673ffffffffffffffffffffffffffffffffffffffff1681526020016004820160009054906101000a900473ffffffffffffffffffffffffffffffffffffffff1673ffffffffffffffffffffffffffffffffffffffff1673ffffffffffffffffffffffffffffffffffffffff168152602001600582015481526020016006820160009054906101000a900460ff1615151515815250508486815181106104255761042461194c565b5b602002602001018190525060018561043d91906118f6565b945050505b808061044d9061197b565b915050610224565b508094505050505090565b6000600454905090565b606060006104786001611483565b905060008060005b83811015610521578573ffffffffffffffffffffffffffffffffffffffff16600560006001846104b091906118f6565b815260200190815260200160002060040160009054906101000a900473ffffffffffffffffffffffffffffffffffffffff1673ffffffffffffffffffffffffffffffffffffffff16141561050e5760018361050b91906118f6565b92505b80806105199061197b565b915050610480565b5060008267ffffffffffffffff81111561053e5761053d6118c7565b5b60405190808252806020026020018201604052801561057757816020015b6105646114a7565b81526020019060019003908161055c5790505b50905060005b848110156107c957600360009054906101000a900473ffffffffffffffffffffffffffffffffffffffff1673ffffffffffffffffffffffffffffffffffffffff16600560006001846105cf91906118f6565b815260200190815260200160002060040160009054906101000a900473ffffffffffffffffffffffffffffffffffffffff1673ffffffffffffffffffffffffffffffffffffffff1614156107b657600060018261062c91906118f6565b9050600560008281526020019081526020016000206040518060e0016040529081600082015481526020016001820160009054906101000a900473ffffffffffffffffffffffffffffffffffffffff1673ffffffffffffffffffffffffffffffffffffffff1673ffffffffffffffffffffffffffffffffffffffff168152602001600282015481526020016003820160009054906101000a900473ffffffffffffffffffffffffffffffffffffffff1673ffffffffffffffffffffffffffffffffffffffff1673ffffffffffffffffffffffffffffffffffffffff1681526020016004820160009054906101000a900473ffffffffffffffffffffffffffffffffffffffff1673ffffffffffffffffffffffffffffffffffffffff1673ffffffffffffffffffffffffffffffffffffffff168152602001600582015481526020016006820160009054906101000a900460ff16151515158152505083858151811061079a5761079961194c565b5b60200260200101819052506001846107b291906118f6565b9350505b80806107c19061197b565b91505061057d565b5080945050505050919050565b606060006107e46001611483565b905060008060005b8381101561088d573373ffffffffffffffffffffffffffffffffffffffff166005600060018461081c91906118f6565b815260200190815260200160002060040160009054906101000a900473ffffffffffffffffffffffffffffffffffffffff1673ffffffffffffffffffffffffffffffffffffffff16141561087a5760018361087791906118f6565b92505b80806108859061197b565b9150506107ec565b5060008267ffffffffffffffff8111156108aa576108a96118c7565b5b6040519080825280602002602001820160405280156108e357816020015b6108d06114a7565b8152602001906001900390816108c85790505b50905060005b84811015610b13573373ffffffffffffffffffffffffffffffffffffffff166005600060018461091991906118f6565b815260200190815260200160002060040160009054906101000a900473ffffffffffffffffffffffffffffffffffffffff1673ffffffffffffffffffffffffffffffffffffffff161415610b0057600060018261097691906118f6565b9050600560008281526020019081526020016000206040518060e0016040529081600082015481526020016001820160009054906101000a900473ffffffffffffffffffffffffffffffffffffffff1673ffffffffffffffffffffffffffffffffffffffff1673ffffffffffffffffffffffffffffffffffffffff168152602001600282015481526020016003820160009054906101000a900473ffffffffffffffffffffffffffffffffffffffff1673ffffffffffffffffffffffffffffffffffffffff1673ffffffffffffffffffffffffffffffffffffffff1681526020016004820160009054906101000a900473ffffffffffffffffffffffffffffffffffffffff1673ffffffffffffffffffffffffffffffffffffffff1673ffffffffffffffffffffffffffffffffffffffff168152602001600582015481526020016006820160009054906101000a900460ff161515151581525050838581518110610ae457610ae361194c565b5b6020026020010181905250600184610afc91906118f6565b9350505b8080610b0b9061197b565b9150506108e9565b508094505050505090565b60026000541415610b64576040517f08c379a0000000000000000000000000000000000000000000000000000000008152600401610b5b90611a21565b60405180910390fd5b600260008190555060008111610baf576040517f08c379a0000000000000000000000000000000000000000000000000000000008152600401610ba690611a8d565b60405180910390fd5b6004543414610bf3576040517f08c379a0000000000000000000000000000000000000000000000000000000008152600401610bea90611b1f565b60405180910390fd5b610bfd6001611491565b6000610c096001611483565b90506040518060e001604052808281526020018573ffffffffffffffffffffffffffffffffffffffff1681526020018481526020013373ffffffffffffffffffffffffffffffffffffffff168152602001600073ffffffffffffffffffffffffffffffffffffffff16815260200183815260200160001515815250600560008381526020019081526020016000206000820151816000015560208201518160010160006101000a81548173ffffffffffffffffffffffffffffffffffffffff021916908373ffffffffffffffffffffffffffffffffffffffff1602179055506040820151816002015560608201518160030160006101000a81548173ffffffffffffffffffffffffffffffffffffffff021916908373ffffffffffffffffffffffffffffffffffffffff16021790555060808201518160040160006101000a81548173ffffffffffffffffffffffffffffffffffffffff021916908373ffffffffffffffffffffffffffffffffffffffff16021790555060a0820151816005015560c08201518160060160006101000a81548160ff0219169083151502179055509050508373ffffffffffffffffffffffffffffffffffffffff166323b872dd3330866040518463ffffffff1660e01b8152600401610dea93929190611b4e565b600060405180830381600087803b158015610e0457600080fd5b505af1158015610e18573d6000803e3d6000fd5b50505050828473ffffffffffffffffffffffffffffffffffffffff16827f045dfa01dcba2b36aba1d3dc4a874f4b0c5d2fbeb8d2c4b34a7d88c8d8f929d1336000876000604051610e6c9493929190611b94565b60405180910390a4506001600081905550505050565b60026000541415610ec8576040517f08c379a0000000000000000000000000000000000000000000000000000000008152600401610ebf90611a21565b60405180910390fd5b6002600081905550600060056000838152602001908152602001600020600501549050600060056000848152602001908152602001600020600201549050813414610f48576040517f08c379a0000000000000000000000000000000000000000000000000000000008152600401610f3f90611c4b565b60405180910390fd5b6005600084815260200190815260200160002060030160009054906101000a900473ffffffffffffffffffffffffffffffffffffffff1673ffffffffffffffffffffffffffffffffffffffff166108fc349081150290604051600060405180830381858888f19350505050158015610fc4573d6000803e3d6000fd5b508373ffffffffffffffffffffffffffffffffffffffff166323b872dd3033846040518463ffffffff1660e01b815260040161100293929190611b4e565b600060405180830381600087803b15801561101c57600080fd5b505af1158015611030573d6000803e3d6000fd5b50505050336005600085815260200190815260200160002060040160006101000a81548173ffffffffffffffffffffffffffffffffffffffff021916908373ffffffffffffffffffffffffffffffffffffffff16021790555060016005600085815260200190815260200160002060060160006101000a81548160ff0219169083151502179055506110c26002611491565b600360009054906101000a900473ffffffffffffffffffffffffffffffffffffffff1673ffffffffffffffffffffffffffffffffffffffff166108fc6004549081150290604051600060405180830381858888f1935050505015801561112c573d6000803e3d6000fd5b50505060016000819055505050565b606060006111496001611483565b905060008060005b838110156111f2573373ffffffffffffffffffffffffffffffffffffffff166005600060018461118191906118f6565b815260200190815260200160002060030160009054906101000a900473ffffffffffffffffffffffffffffffffffffffff1673ffffffffffffffffffffffffffffffffffffffff1614156111df576001836111dc91906118f6565b92505b80806111ea9061197b565b915050611151565b5060008267ffffffffffffffff81111561120f5761120e6118c7565b5b60405190808252806020026020018201604052801561124857816020015b6112356114a7565b81526020019060019003908161122d5790505b50905060005b84811015611478573373ffffffffffffffffffffffffffffffffffffffff166005600060018461127e91906118f6565b815260200190815260200160002060030160009054906101000a900473ffffffffffffffffffffffffffffffffffffffff1673ffffffffffffffffffffffffffffffffffffffff1614156114655760006001826112db91906118f6565b9050600560008281526020019081526020016000206040518060e0016040529081600082015481526020016001820160009054906101000a900473ffffffffffffffffffffffffffffffffffffffff1673ffffffffffffffffffffffffffffffffffffffff1673ffffffffffffffffffffffffffffffffffffffff168152602001600282015481526020016003820160009054906101000a900473ffffffffffffffffffffffffffffffffffffffff1673ffffffffffffffffffffffffffffffffffffffff1673ffffffffffffffffffffffffffffffffffffffff1681526020016004820160009054906101000a900473ffffffffffffffffffffffffffffffffffffffff1673ffffffffffffffffffffffffffffffffffffffff1673ffffffffffffffffffffffffffffffffffffffff168152602001600582015481526020016006820160009054906101000a900460ff1615151515815250508385815181106114495761144861194c565b5b602002602001018190525060018461146191906118f6565b9350505b80806114709061197b565b91505061124e565b508094505050505090565b600081600001549050919050565b6001816000016000828254019250508190555050565b6040518060e0016040528060008152602001600073ffffffffffffffffffffffffffffffffffffffff16815260200160008152602001600073ffffffffffffffffffffffffffffffffffffffff168152602001600073ffffffffffffffffffffffffffffffffffffffff168152602001600081526020016000151581525090565b600081519050919050565b600082825260208201905092915050565b6000819050602082019050919050565b6000819050919050565b61156781611554565b82525050565b600073ffffffffffffffffffffffffffffffffffffffff82169050919050565b60006115988261156d565b9050919050565b6115a88161158d565b82525050565b60006115b98261156d565b9050919050565b6115c9816115ae565b82525050565b60008115159050919050565b6115e4816115cf565b82525050565b60e082016000820151611600600085018261155e565b506020820151611613602085018261159f565b506040820151611626604085018261155e565b50606082015161163960608501826115c0565b50608082015161164c60808501826115c0565b5060a082015161165f60a085018261155e565b5060c082015161167260c08501826115db565b50505050565b600061168483836115ea565b60e08301905092915050565b6000602082019050919050565b60006116a882611528565b6116b28185611533565b93506116bd83611544565b8060005b838110156116ee5781516116d58882611678565b97506116e083611690565b9250506001810190506116c1565b5085935050505092915050565b60006020820190508181036000830152611715818461169d565b905092915050565b61172681611554565b82525050565b6000602082019050611741600083018461171d565b92915050565b600080fd5b6117558161158d565b811461176057600080fd5b50565b6000813590506117728161174c565b92915050565b60006020828403121561178e5761178d611747565b5b600061179c84828501611763565b91505092915050565b6117ae81611554565b81146117b957600080fd5b50565b6000813590506117cb816117a5565b92915050565b6000806000606084860312156117ea576117e9611747565b5b60006117f886828701611763565b9350506020611809868287016117bc565b925050604061181a868287016117bc565b9150509250925092565b6000806040838503121561183b5761183a611747565b5b600061184985828601611763565b925050602061185a858286016117bc565b9150509250929050565b7f4e487b7100000000000000000000000000000000000000000000000000000000600052601160045260246000fd5b600061189e82611554565b91506118a983611554565b9250828210156118bc576118bb611864565b5b828203905092915050565b7f4e487b7100000000000000000000000000000000000000000000000000000000600052604160045260246000fd5b600061190182611554565b915061190c83611554565b9250827fffffffffffffffffffffffffffffffffffffffffffffffffffffffffffffffff0382111561194157611940611864565b5b828201905092915050565b7f4e487b7100000000000000000000000000000000000000000000000000000000600052603260045260246000fd5b600061198682611554565b91507fffffffffffffffffffffffffffffffffffffffffffffffffffffffffffffffff8214156119b9576119b8611864565b5b600182019050919050565b600082825260208201905092915050565b7f5265656e7472616e637947756172643a207265656e7472616e742063616c6c00600082015250565b6000611a0b601f836119c4565b9150611a16826119d5565b602082019050919050565b60006020820190508181036000830152611a3a816119fe565b9050919050565b7f5072696365206d757374206265206174206c6561737420312077656900000000600082015250565b6000611a77601c836119c4565b9150611a8282611a41565b602082019050919050565b60006020820190508181036000830152611aa681611a6a565b9050919050565b7f5072696365206d75737420626520657175616c20746f206c697374696e67207060008201527f7269636500000000000000000000000000000000000000000000000000000000602082015250565b6000611b096024836119c4565b9150611b1482611aad565b604082019050919050565b60006020820190508181036000830152611b3881611afc565b9050919050565b611b488161158d565b82525050565b6000606082019050611b636000830186611b3f565b611b706020830185611b3f565b611b7d604083018461171d565b949350505050565b611b8e816115cf565b82525050565b6000608082019050611ba96000830187611b3f565b611bb66020830186611b3f565b611bc3604083018561171d565b611bd06060830184611b85565b95945050505050565b7f506c65617365207375626d6974207468652061736b696e67207072696365206960008201527f6e206f7264657220746f20636f6d706c65746520746865207075726368617365602082015250565b6000611c356040836119c4565b9150611c4082611bd9565b604082019050919050565b60006020820190508181036000830152611c6481611c28565b905091905056fea2646970667358221220c446b1b69e6239254e631746e46b89a7adfcd85ac25dcab169d6f9943f048f3e64736f6c63430008090033",
  "linkReferences": {},
  "deployedLinkReferences": {}
}